{
  "contractName": "NEST_NodeAssignmentData",
  "abi": [
    {
      "inputs": [
        {
          "name": "map",
          "type": "address"
        }
      ],
      "payable": false,
      "stateMutability": "nonpayable",
      "type": "constructor"
    },
    {
      "constant": false,
      "inputs": [
        {
          "name": "map",
          "type": "address"
        }
      ],
      "name": "changeMapping",
      "outputs": [],
      "payable": false,
      "stateMutability": "nonpayable",
      "type": "function"
    },
    {
      "constant": false,
      "inputs": [
        {
          "name": "amount",
          "type": "uint256"
        }
      ],
      "name": "addNest",
      "outputs": [],
      "payable": false,
      "stateMutability": "nonpayable",
      "type": "function"
    },
    {
      "constant": true,
      "inputs": [],
      "name": "checkNodeAllAmount",
      "outputs": [
        {
          "name": "",
          "type": "uint256"
        }
      ],
      "payable": false,
      "stateMutability": "view",
      "type": "function"
    },
    {
      "constant": false,
      "inputs": [
        {
          "name": "add",
          "type": "address"
        },
        {
          "name": "amount",
          "type": "uint256"
        }
      ],
      "name": "addNodeLatestAmount",
      "outputs": [],
      "payable": false,
      "stateMutability": "nonpayable",
      "type": "function"
    },
    {
      "constant": true,
      "inputs": [
        {
          "name": "add",
          "type": "address"
        }
      ],
      "name": "checkNodeLatestAmount",
      "outputs": [
        {
          "name": "",
          "type": "uint256"
        }
      ],
      "payable": false,
      "stateMutability": "view",
      "type": "function"
    }
  ],
  "bytecode": "0x6080604052690205822974f12c7409db60015534801561001e57600080fd5b5060405161041d38038061041d8339818101604052602081101561004157600080fd5b5051600080546001600160a01b039092166001600160a01b03199092169190911790556103aa806100736000396000f3fe608060405234801561001057600080fd5b50600436106100575760003560e01c806320c99aab1461005c578063259860651461007b578063a781e7f814610095578063cc0f0c17146100bb578063f09b8848146100e7575b600080fd5b6100796004803603602081101561007257600080fd5b503561010d565b005b6100836101cf565b60408051918252519081900360200190f35b610079600480360360208110156100ab57600080fd5b50356001600160a01b03166101d5565b610079600480360360408110156100d157600080fd5b506001600160a01b03813516906020013561027c565b610083600480360360208110156100fd57600080fd5b50356001600160a01b0316610341565b600054604080516347f3bf4360e11b8152602060048201819052600e60248301526d1b9bd919505cdcda59db9b595b9d60921b604483015291516001600160a01b0390931692638fe77e8692606480840193919291829003018186803b15801561017657600080fd5b505afa15801561018a573d6000803e3d6000fd5b505050506040513d60208110156101a057600080fd5b50516001600160a01b031633146101b657600080fd5b6001546101c9908263ffffffff61035c16565b60015550565b60015490565b6000546040805163a3bf06f160e01b815233600482015290516001600160a01b039092169163a3bf06f191602480820192602092909190829003018186803b15801561022057600080fd5b505afa158015610234573d6000803e3d6000fd5b505050506040513d602081101561024a57600080fd5b5051151560011461025a57600080fd5b600080546001600160a01b0319166001600160a01b0392909216919091179055565b600054604080516347f3bf4360e11b8152602060048201819052600e60248301526d1b9bd919505cdcda59db9b595b9d60921b604483015291516001600160a01b0390931692638fe77e8692606480840193919291829003018186803b1580156102e557600080fd5b505afa1580156102f9573d6000803e3d6000fd5b505050506040513d602081101561030f57600080fd5b50516001600160a01b0316331461032557600080fd5b6001600160a01b03909116600090815260026020526040902055565b6001600160a01b031660009081526002602052604090205490565b60008282018381101561036e57600080fd5b939250505056fea265627a7a72305820817138f2a43ea08e2d4b46cd3895a0c9441e29217167e5252256ee36e12b356264736f6c634300050a0032",
  "source": "pragma solidity 0.5.10;\r\n\r\nimport \"./SafeMath.sol\";\r\n\r\ninterface IBMapping {\r\n    function checkAddress(string calldata name) external view returns (address contractAddress);\r\n    function checkOwners(address man) external view returns (bool);\r\n}\r\n\r\ninterface IBNEST {\r\n    function totalSupply() external view returns (uint supply);\r\n    function balanceOf( address who ) external view returns (uint value);\r\n    function allowance( address owner, address spender ) external view returns (uint _allowance);\r\n\r\n    function transfer( address to, uint256 value) external;\r\n    function transferFrom( address from, address to, uint value) external returns (bool ok);\r\n    function approve( address spender, uint value ) external returns (bool ok);\r\n\r\n    event Transfer( address indexed from, address indexed to, uint value);\r\n    event Approval( address indexed owner, address indexed spender, uint value);\r\n    \r\n    function balancesStart() external view returns(uint256);\r\n    function balancesGetBool(uint256 num) external view returns(bool);\r\n    function balancesGetNext(uint256 num) external view returns(uint256);\r\n    function balancesGetValue(uint256 num) external view returns(address, uint256);\r\n}\r\n\r\n// NestNode contract\r\ninterface SuperMan {\r\n    function totalSupply() external view returns (uint256);\r\n    function balanceOf(address who) external view returns (uint256);\r\n    function allowance(address owner, address spender) external view returns (uint256);\r\n    function transfer(address to, uint256 value) external returns (bool);\r\n    function approve(address spender, uint256 value) external returns (bool);\r\n    function transferFrom(address from, address to, uint256 value) external returns (bool);\r\n    event Transfer(address indexed from, address indexed to, uint256 value);\r\n    event Approval(address indexed owner, address indexed spender, uint256 value);\r\n}\r\n\r\n/**\r\n * @title Guardian node nest storage\r\n */\r\ncontract NEST_NodeSave {\r\n    IBMapping mappingContract;                      \r\n    IBNEST nestContract;                             \r\n    \r\n    /**\r\n    * @dev Initialization method\r\n    * @param map Mapping contract address\r\n    */\r\n    constructor (address map) public {\r\n        mappingContract = IBMapping(address(map));              \r\n        nestContract = IBNEST(address(mappingContract.checkAddress(\"nest\")));            \r\n    }\r\n    \r\n    /**\r\n    * @dev Change mapping contract\r\n    * @param map Mapping contract address\r\n    */\r\n    function changeMapping(address map) public onlyOwner {\r\n        mappingContract = IBMapping(address(map));              \r\n        nestContract = IBNEST(address(mappingContract.checkAddress(\"nest\")));            \r\n    }\r\n    \r\n    /**\r\n    * @dev Transfer out nest\r\n    * @param amount Transfer out quantity\r\n    * @param to Transfer out target\r\n    * @return Actual transfer out quantity\r\n    */\r\n    function turnOut(uint256 amount, address to) public onlyMiningCalculation returns(uint256) {\r\n        uint256 leftNum = nestContract.balanceOf(address(this));\r\n        if (leftNum >= amount) {\r\n            nestContract.transfer(to, amount);\r\n            return amount;\r\n        } else {\r\n            return 0;\r\n        }\r\n    }\r\n    \r\n    modifier onlyOwner(){\r\n        require(mappingContract.checkOwners(msg.sender) == true);\r\n        _;\r\n    }\r\n\r\n    modifier onlyMiningCalculation(){\r\n        require(address(mappingContract.checkAddress(\"nodeAssignment\")) == msg.sender);\r\n        _;\r\n    }\r\n    \r\n}\r\n\r\n/**\r\n * @title Node assignment contract\r\n */\r\ncontract NEST_NodeAssignment {\r\n    \r\n    using SafeMath for uint256;\r\n    IBMapping mappingContract;                              //  Mapping contract\r\n    IBNEST nestContract;                                    //  NEST contract\r\n    SuperMan supermanContract;                              //  NestNode contract\r\n    NEST_NodeSave nodeSave;                                 //  NestNode save contract\r\n    NEST_NodeAssignmentData nodeAssignmentData;             //  NestNode data assignment contract\r\n\r\n    /**\r\n    * @dev Initialization method\r\n    * @param map Voting contract address\r\n    */\r\n    constructor (address map) public {\r\n        mappingContract = IBMapping(map); \r\n        nestContract = IBNEST(address(mappingContract.checkAddress(\"nest\")));\r\n        supermanContract = SuperMan(address(mappingContract.checkAddress(\"nestNode\")));\r\n        nodeSave = NEST_NodeSave(address(mappingContract.checkAddress(\"nestNodeSave\")));\r\n        nodeAssignmentData = NEST_NodeAssignmentData(address(mappingContract.checkAddress(\"nodeAssignmentData\")));\r\n    }\r\n    \r\n    /**\r\n    * @dev Reset voting contract\r\n    * @param map Voting contract address\r\n    */\r\n    function changeMapping(address map) public onlyOwner{\r\n        mappingContract = IBMapping(map); \r\n        nestContract = IBNEST(address(mappingContract.checkAddress(\"nest\")));\r\n        supermanContract = SuperMan(address(mappingContract.checkAddress(\"nestNode\")));\r\n        nodeSave = NEST_NodeSave(address(mappingContract.checkAddress(\"nestNodeSave\")));\r\n        nodeAssignmentData = NEST_NodeAssignmentData(address(mappingContract.checkAddress(\"nodeAssignmentData\")));\r\n    }\r\n    \r\n    /**\r\n    * @dev Deposit NEST token\r\n    * @param amount Amount of deposited NEST\r\n    */\r\n    function bookKeeping(uint256 amount) public {\r\n        require(amount > 0);\r\n        require(nestContract.transferFrom(address(msg.sender), address(nodeSave), amount));\r\n        nodeAssignmentData.addNest(amount);\r\n    }\r\n    \r\n    // NestNode receive and settlement\r\n    function nodeGet() public {\r\n        require(address(msg.sender) == address(tx.origin));\r\n        require(supermanContract.balanceOf(address(msg.sender)) > 0);\r\n        uint256 allAmount = nodeAssignmentData.checkNodeAllAmount();\r\n        uint256 amount = allAmount.sub(nodeAssignmentData.checkNodeLatestAmount(address(msg.sender)));\r\n        uint256 getAmount = amount.mul(supermanContract.balanceOf(address(msg.sender))).div(1500);\r\n        require(nestContract.balanceOf(address(nodeSave)) >= getAmount);\r\n        nodeSave.turnOut(getAmount,address(msg.sender));\r\n        nodeAssignmentData.addNodeLatestAmount(address(msg.sender),allAmount);\r\n    }\r\n    \r\n    // NestNode transfer settlement\r\n    function nodeCount(address fromAdd, address toAdd) public {\r\n        require(address(supermanContract) == address(msg.sender));\r\n        require(supermanContract.balanceOf(address(fromAdd)) > 0);\r\n        uint256 allAmount = nodeAssignmentData.checkNodeAllAmount();\r\n        uint256 amountFrom = allAmount.sub(nodeAssignmentData.checkNodeLatestAmount(address(fromAdd)));\r\n        uint256 getAmountFrom = amountFrom.mul(supermanContract.balanceOf(address(fromAdd))).div(1500);\r\n        if (nestContract.balanceOf(address(nodeSave)) >= getAmountFrom) {\r\n            nodeSave.turnOut(getAmountFrom,address(fromAdd));\r\n            nodeAssignmentData.addNodeLatestAmount(address(fromAdd),allAmount);\r\n        }\r\n        uint256 amountTo = allAmount.sub(nodeAssignmentData.checkNodeLatestAmount(address(toAdd)));\r\n        uint256 getAmountTo = amountTo.mul(supermanContract.balanceOf(address(toAdd))).div(1500);\r\n        if (nestContract.balanceOf(address(nodeSave)) >= getAmountTo) {\r\n            nodeSave.turnOut(getAmountTo,address(toAdd));\r\n            nodeAssignmentData.addNodeLatestAmount(address(toAdd),allAmount);\r\n        }\r\n    }\r\n    \r\n    // NestNode receivable amount\r\n    function checkNodeNum() public view returns (uint256) {\r\n         uint256 allAmount = nodeAssignmentData.checkNodeAllAmount();\r\n         uint256 amount = allAmount.sub(nodeAssignmentData.checkNodeLatestAmount(address(msg.sender)));\r\n         uint256 getAmount = amount.mul(supermanContract.balanceOf(address(msg.sender))).div(1500);\r\n         return getAmount; \r\n    }\r\n    \r\n    // Administrator only\r\n    modifier onlyOwner(){\r\n        require(mappingContract.checkOwners(msg.sender));\r\n        _;\r\n    }\r\n}\r\n\r\n/**\r\n * @title Guardian node receives data\r\n */\r\ncontract NEST_NodeAssignmentData {\r\n    using SafeMath for uint256;\r\n    IBMapping mappingContract;              \r\n    uint256 nodeAllAmount = 9546345842385995696603;                                 \r\n    mapping(address => uint256) nodeLatestAmount;               \r\n    \r\n    /**\r\n    * @dev Initialization method\r\n    * @param map Mapping contract address\r\n    */\r\n    constructor (address map) public {\r\n        mappingContract = IBMapping(map); \r\n    }\r\n    \r\n    /**\r\n    * @dev Change mapping contract\r\n    * @param map Mapping contract address\r\n    */\r\n    function changeMapping(address map) public onlyOwner{\r\n        mappingContract = IBMapping(map); \r\n    }\r\n    \r\n    //  Add nest\r\n    function addNest(uint256 amount) public onlyNodeAssignment {\r\n        nodeAllAmount = nodeAllAmount.add(amount);\r\n    }\r\n    \r\n    //  View cumulative total\r\n    function checkNodeAllAmount() public view returns (uint256) {\r\n        return nodeAllAmount;\r\n    }\r\n    \r\n    //  Record last received quantity\r\n    function addNodeLatestAmount(address add ,uint256 amount) public onlyNodeAssignment {\r\n        nodeLatestAmount[add] = amount;\r\n    }\r\n    \r\n    //  View last received quantity\r\n    function checkNodeLatestAmount(address add) public view returns (uint256) {\r\n        return nodeLatestAmount[address(add)];\r\n    }\r\n    \r\n    modifier onlyOwner(){\r\n        require(mappingContract.checkOwners(msg.sender) == true);\r\n        _;\r\n    }\r\n    \r\n    modifier onlyNodeAssignment(){\r\n        require(address(msg.sender) == address(mappingContract.checkAddress(\"nodeAssignment\")));\r\n        _;\r\n    }\r\n}",
  "sourcePath": "C:/Users/admin/flysoft/deployNest0.5.10/contracts/NestContracts.sol",
  "compiler": {
    "name": "solc",
    "version": "0.5.10+commit.5a6ea5b1.Emscripten.clang"
  },
  "schemaVersion": "3.3.2",
  "updatedAt": "2020-11-20T14:02:49.388Z",
  "networkType": "ethereum",
  "devdoc": {
    "methods": {
      "changeMapping(address)": {
        "details": "Change mapping contract\r",
        "params": {
          "map": "Mapping contract address\r"
        }
      },
      "constructor": {
        "details": "Initialization method\r",
        "params": {
          "map": "Mapping contract address\r"
        }
      }
    },
    "title": "Guardian node receives data\r"
  },
  "userdoc": {
    "methods": {}
  }
}